:020000040800F2
:1000000000070020F1010008692B0008212B0008DF
:10001000492B0008212B0008412B0008F3010008A0
:10002000F3010008F3010008F3010008D93B0008C0
:10003000F3010008F3010008F3010008F3010008D0
:10004000F3010008F3010008F3010008F3010008C0
:10005000F3010008F3010008F3010008F3010008B0
:10006000F3010008F3010008F3010008F3010008A0
:10007000F3010008F3010008F3010008F301000890
:10008000F3010008F3010008F3010008F301000880
:10009000F3010008F3010008F3010008F301000870
:1000A000F3010008F3010008F3010008F301000860
:1000B000754F0008F3010008F3010008F301000880
:1000C000F3010008F3010008F3010008F301000840
:1000D000F3010008F3010008614F0008F301000874
:1000E000F3010008F3010008F3010008F301000820
:1000F000F3010008F3010008F3010008F301000810
:10010000F3010008F3010008F3010008F3010008FF
:10011000F3010008F3010008F3010008F3010008EF
:10012000F3010008F3010008F3010008F3010008DF
:10013000F3010008F3010008F3010008D52A0008C4
:10014000012B0008112B0008F3010008F30100083F
:10015000F3010008F3010008F3010008F3010008AF
:10016000F3010008F3010008F3010008F30100089F
:10017000F3010008F3010008F3010008F30100088F
:10018000F3010008F3010008F3010008F30100087F
:10019000F3010008F3010008F3010008F30100086F
:1001A000F3010008F3010008F3010008F30100085F
:1001B000F3010008F3010008F3010008F30100084F
:1001C000F3010008F3010008F3010008F30100083F
:1001D000F3010008F3010008F3010008F30100082F
:1001E0002D150008FFFFFFFFFFFFFFFFFFFFFFFFD1
:1001F00002E000F000F8FEE772B6374880F30888A6
:10020000364880F3098836483649086040F20000D5
:10021000CCF200004EF63471CEF200010860BFF35C
:100220004F8FBFF36F8F40F20000C0F2F0004EF628
:100230008851CEF200010860BFF34F8FBFF36F8F7C
:100240004FF00000E1EE100A4EF63C71CEF20001D4
:100250000860062080F31488BFF36F8F04F096FCCB
:1002600004F028FD4FF055301F491B4A91423CBF16
:1002700041F8040BFAE71D49184A91423CBF41F886
:10028000040BFAE71A491B4A1B4B9A423EBF51F82E
:10029000040B42F8040BF8E700201849184A914271
:1002A0003CBF41F8040BFAE704F074FC04F056FD7F
:1002B000144C154DAC4203DA54F8041B8847F9E797
:1002C00000F042F8114C124DAC4203DA54F8041B12
:1002D0008847F9E704F05CBC0007002000230020F9
:1002E0000000000808ED00E00001002000070020E9
:1002F000F8520008002300208823002088230020D3
:1003000088500020E0010008E4010008E401000832
:10031000E40100082DE9F04F2DED108AC1F80CD052
:10032000C3689D46BDEC108ABDE8F08F002383F3BF
:1003300011882846A047002004F08AF8FEE704F060
:100340000DF800DFFEE70000F8B501F05DF904F0FC
:10035000B3FB074604F002FC0546A8BB1F4B9F42B7
:1003600032D001339F4232D01D4B27F0FF029A4218
:1003700030D1F8B200F0F0FE2E4642F2107400F0D8
:10038000F1FE08B10024264601F0E8FC20B103206C
:1003900000F078F80024264635B1124B9F4203D076
:1003A00004F0D4FB00242646002004F08FFB0EB19D
:1003B00000F07EF801F048FA00F042FF204600F01D
:1003C000CBF800F075F8F9E72E460024D7E704468D
:1003D0000126D4E706464FF47A74D0E7010007B04F
:1003E000000008B0263A09B008B501F0D9F8A0F12C
:1003F00020035842584108BD07B5042101900DEB78
:10040000010001F0EBF803B05DF804FB38B53023D0
:1004100083F31188174803680BB104F0D7F8164A24
:10042000144800234FF47A7104F0C6F8002383F3D4
:100430001188124C236813B12368013B2360636861
:1004400013B16368013B63600D4D2B7833B963686A
:100450007BB9022001F08EF9322363602B78032BE5
:1004600007D163682BB9022001F084F94FF47A7345
:10047000636038BD882300200D040008A8240020F4
:10048000A0230020084B187003280CD8DFE800F0E8
:1004900008050208022001F06BB9022001F066B9DC
:1004A000024B00225A607047A0230020A82400209D
:1004B00010B501F053FC30B1204B03221A70204BD1
:1004C00000225A6010BD1F4B1F4A1C46196801319B
:1004D000F8D004339342F9D162681C4B9A42F1D9A7
:1004E0001B4B9B6803F1006303F580339A42E9D20A
:1004F00004F000FB04F012FB002001F09FF8022042
:10050000FFF7C0FF134B1A6C00221A64196E1A66AB
:10051000196E596C5A64596E5A665B6E72B64FF01A
:10052000E0233021C3F8084DD4E9003281F311886B
:100530009D4683F308881047C4E700BFA02300202E
:10054000A82400200000010820000108FFFF000887
:1005500000230020003802402DE9F04F93B0DFF86F
:10056000F89202902022FF210AA8D9F8085001F041
:1005700015F9B04A1378A3B9AF480121036011708F
:10058000302383F3118803680BB104F01FF8AB4AE2
:10059000A94800234FF47A7104F00EF8002383F386
:1005A0001188029B13B1A64B029A1A60A54A029CBD
:1005B0001378032B1EBF00231370A14A4FF0000BCA
:1005C00018BF5360CDF804B05E46DA46012001F052
:1005D000CFF824B19A4B1B68002B00F0C581002096
:1005E00000F0DEFF071E80F2F58100F071FEF0E7FB
:1005F0000220FFF7F9FE002840F0E381029B9248B9
:10060000BBF1000F08BF1C46022140E04FF47A7096
:1006100000F0C6FF071EF1DB0220FFF7E5FE002811
:10062000ECD0013F052F00F2CE81DFE807F0030791
:100630000A0D10330520FFF7DFFE14E0D9F80000A3
:10064000F9E7D9F80400F6E7D9F80800F3E74FF026
:100650001C08404600F0F4FF08F10408FFF7CCFE48
:10066000B8F12C0FF5D1019B012000FA07F71F43C9
:10067000FBB201934FF0000A01F0DCF82EB1019BB0
:1006800003F00B030B2B08BF00247048022100F07D
:10069000A5FF9BE7D9F80C00CDE7002EAED0019B5B
:1006A00003F00B030B2BA9D10220FFF79DFE074699
:1006B0000028A3D0012000F0C1FF0220FFF7E2FED6
:1006C00000261FFA86F8404600F0C8FF044670B1C5
:1006D0000021404600F0DAFF01360028F1D1BB4688
:1006E00004465B48022100F079FF3E466EE7012098
:1006F000FFF7C8FE2546D9F80830AB4207D928468F
:1007000000F09EFF013040F061810435F3E74D4B6E
:1007100000251D704A4BBB465D603E46ACE7002E8F
:100720003FF46CAF019B03F00B030B2B7FF466AF20
:100730000220FFF7A7FE322000F032FFB0F10008E0
:10074000FFF65CAF18F003077FF458AFD9F8082024
:1007500008EB050393423FF651AFB8F5807F3FF7B2
:100760004DAF3C4B0393B8450BDD4FF47A7000F06E
:1007700017FF0028FFF642AF039B013703F8010B78
:10078000F0E7C820FFF730FE074600283FF436AFF9
:100790001F2D11D8C5F1200242450AAB25F00300F8
:1007A00028BF42462B490392184400F0E5FF039A04
:1007B0002848FF2100F0F2FF4FEAA80325490393E0
:1007C000C8F38702284600F0F1FF0646002888D0CB
:1007D000039B05EB83054FE70220FFF705FE00288A
:1007E0003FF40CAF00F072FF00283FF407AF002782
:1007F000B846D9F80830BB4218D91F2F11D80A9B28
:1008000001330ED027F0030312AA134453F8203CFF
:1008100005934046042205A901F058FA04378046A2
:10082000E7E7384600F00CFF0590F2E74046FFF797
:10083000E3FD21E7A4240020882300200D04000804
:10084000A8240020A0230020805000087850000831
:100850007C500008A42300200023002000236421F2
:1008600005A8059300F0B0FE00287FF4C7AE022073
:10087000FFF7BAFD00283FF4C1AE059800F00EFF67
:10088000D5E70023642105A8059300F09DFE00280C
:100890007FF4B4AE0220FFF7A7FD00283FF4AEAE10
:1008A000059800F00BFFC2E70220FFF79DFD00282E
:1008B0003FF4A4AE00F01AFFB9E70220FFF794FD61
:1008C00000283FF49BAE05A9142000F015FF03900B
:1008D000FFF792FD039905A800F080FECCE63220D8
:1008E00000F05EFE071EFFF689AEBB077FF486AE02
:1008F000D9F8082007EB0A0393423FF67FAE0220A7
:10090000FFF772FD00283FF479AE27F00307574444
:10091000BA453FF4B1AE504600F092FEFFF76CFDD1
:100920000AF1040AF4E74FF47A70FFF75DFD00283E
:100930003FF464AE00F0CAFE002849D00A9B0133A0
:100940000BD008220AA9002000F030FF00283FD079
:100950002022FF210AA800F021FF3B48022100F0DD
:100960003DFE3A4803F07AFD13B0BDE8F08F002E4B
:100970003FF444AE019B03F00B030B2B7FF43EAE20
:100980000023642105A8059300F01EFE07460028F9
:100990007FF434AE0220FFF727FD804600283FF4A5
:1009A0002DAE0221284800F019FE41F2883003F0F4
:1009B00055FD059800F054FF464600F03BFF3C46CD
:1009C00004E6064658E64FF0000A17E6BB4688E6FE
:1009D000374686E6012000F0C9FEA7F1210016285F
:1009E0003FF6F4AD01A353F820F000BFF105000875
:1009F0000D0600089B060008CD050008CD0500087F
:100A0000CD0500081F070008DF080008D907000807
:100A10005D08000883080008A9080008CD05000843
:100A2000BB080008CD050008270900087906000862
:100A3000CD0500086F090008FD05000879060008CB
:100A4000CD0500085D08000878500008A086010068
:100A5000094A136849F2690099B21B0C00FB013383
:100A60001360064B186844F2506182B2000C01FB1F
:100A70000200186080B27047182300201423002061
:100A800010B500211022044600F088FE034B03CB72
:100A9000206061601868A06010BD00BF107AFF1F61
:100AA000F0B5ADF54F7D6CAC4FF4C47207460D4602
:100AB0002046002100F072FE02F05EF8264B4FF453
:100AC0007A72B0FBF2F0186093E80700022384E822
:100AD00007000DF5E9702382FFF7D2FF4AF60743BE
:100AE0001E49238407A804F0BFFA172384F8323183
:100AF0000DF2E32207AB0DF12C0C1E4603CE66452A
:100B000010605160334602F10802F6D1306810607F
:100B1000B188B37993710DAE9180204631460122A0
:100B200000F0B8FE00230393AB7E029305F1190396
:100B3000019380B20123CDE904600093E97E04A310
:100B4000D3E90023384602F00FFC0DF54F7DF0BDD0
:100B50009E6AC421818A46EEB02400208450000899
:100B60002DE9F0412C4C237ADAB080460D465BBB70
:100B700027A9284600F0B4FF0746002842D19DF877
:100B80009D60C82E3ED801464FF4A662204600F074
:100B900005FE4FF48073C4F8F8314FF40073C4F8C5
:100BA0000C334FF44073C4F8203432460DF19E01EB
:100BB00004F1090000F0E0FD26449DF89C307772B6
:100BC00023720BB9EB7E23728122002106AC27A889
:100BD00000F0E4FD0122214627A800F0C7FF002312
:100BE0000393AB7E029305F1190380B2019328238E
:100BF000CDE904400093E97E05A3D3E900234046F4
:100C000002F0B2FB5AB0BDE8F08100BFAFF3008044
:100C100026417272DF25D7B7F8340020F0B5254E93
:100C20004FF48A7505FB0065F1B096F8D83085F869
:100C3000DC300024D822214685F8E8403AA800F0AC
:100C4000ADFD06F1090000F0A1FDD5F8E4308DF806
:100C5000F000C2B206AF06F109010DF1F100CDE9D5
:100C60003A3400F089FD394601223AA800F0B4FF79
:100C700080B2CDE9047008230127CDE9023706F1DF
:100C8000D803019330230093317A0B4807A3D3E9AB
:100C9000002302F069FBA04206DD01F06DFFC5F8FC
:100CA000E000384671B0F0BD2046FBE778F6339F90
:100CB00093CACD8DF8340020C83400202DE9F041CE
:100CC0001D4D1E4E1E4F86B0284602F079FB03468E
:100CD00058B30024CDE90344ADF81440027B8DF8ED
:100CE000142099684068029403AA03C21B68DFF8C5
:100CF000548043F00043029301F040FF821941F118
:100D00000003009402A9384601F008FAA04205DD6C
:100D1000284602F059FB88F80040D5E798F80030E3
:100D2000072B05D8013388F8003006B0BDE8F08104
:100D3000014802F049FBF8E7C834002040420F00A8
:100D4000303A00202D3A002070B50D4614461E465C
:100D500002F066FA50B9022E10D1012C0ED112A366
:100D6000D3E90023C5E90023012007E0282C10D097
:100D700005D8012C09D0052C0FD0002070BD302CD7
:100D8000FBD10BA3D3E90023ECE70BA3D3E90023AA
:100D9000E8E70BA3D3E90023E4E70BA3D3E900239F
:100DA000E0E700BFAFF30080401DA12026812A0BA1
:100DB00078F6339F93CACD8D9E6AC421818A46EE10
:100DC00026417272DF25D7B7F017304A39059E5693
:100DD00038B505460E4C0021013500F057FCA4F84B
:100DE0002C55B4F82C0500F039FC78B1B4F82C057A
:100DF00000F044FC014648B9B4F82C0500F046FC6C
:100E0000B4F82C350133A4F82C35EAE738BD00BF1F
:100E1000F834002010B50A4B0A4A1A6003F58053D3
:100E200093F870203AB9DC6E2CB1204601F014F82A
:100E3000204601F051F9BDE81040034801F00CB81C
:100E4000303A002038510008884A00202DE9F04F40
:100E50008FB000AF05460C4602F0E2F900284BD1F6
:100E6000237E022B1BD1E38A012B18D101F084FED3
:100E70000646FFF7EDFD03464FF4C870DFF8D48255
:100E8000B3FBF0F206F5167602FB103316FA83F385
:100E9000C8F80030E37E33B9A74B00221A703C3704
:100EA000BD46BDE8F08F07F12401204600F0CCFDDF
:100EB0000028F4D107F11400FFF7E2FD97F826406F
:100EC00007F11401224607F1270004F09BF80028DF
:100ED000E2D10F2C08D8984B1C70D8F80030A3F53D
:100EE0001673C8F80030DAE797F824100029D6D036
:100EF000284602F08DF9D2E7E38A282B33D010D8A8
:100F0000012B2BD0052BCAD1BFF34F8F8B498C4BB4
:100F1000CA6802F4E0621343CB60BFF34F8F00BF97
:100F2000FDE7302BBBD1874EE17E327A9142B6D1BC
:100F3000607E3146002291F8DC50854200F0AD80A1
:100F40000132042A01F58A71F5D1326840F6B831D0
:100F5000FA328A4294BF32603160A0E721462846C7
:100F6000FFF79EFD9BE721462846FFF7F9FD96E730
:100F7000B2F8EC507B6005F103094FEA99094FEA9A
:100F80008902D11DC908A8EBC1039D46EB4600218B
:100F9000584600F003FC04F1EE012A46314458465D
:100FA00000F0EAFB7B6813B9012000F047FB96F8DC
:100FB000D20000F053FB044630B9307200F086FBDB
:100FC000204600F03BFBB0E0D6F8D4203AB996F8C2
:100FD000D200B6F82C25824201D8FFF7F9FED6F8E8
:100FE000D4202A44944208D296F8D200B6F82C2590
:100FF0000130824201D8FFF7EBFE70685FFA89F298
:10100000594600F0D3FB08B9C54679E0726896F8F6
:10101000D2002A447260D6F8D42005EB0209C6F843
:10102000D49000F01BFB814509D396F8D220D6F866
:10103000D4000132001B86F8D220C6F8D400FF2D60
:101040000FD80024347200F041FB204600F0F6FA7D
:1010500000F084FE3C4B188108B9FFF729FAC54619
:101060001DE7BB6896F8D9000AFB0362FB68D2F85B
:10107000E41082F8E83001F58061C2F8E030C2F88F
:10108000E410FFF7CBFDFFF719FE96F8D9200132E7
:1010900002F0030286F8D920B6E74FF48A7A0AFBF9
:1010A00002F505F1EA013144204600F0C9FDF8607F
:1010B00000287FF4F4AE3544012285F8E82001F0E1
:1010C0005BFDD5F8E020D6ED007ADFED206A801ACE
:1010D000192838BF192040F6B832904228BF104670
:1010E000B8EE677A07EE900AF8EEE77A67EEA67A2E
:1010F000DFED176AE7EE267AFCEEE77AC6ED007AB6
:1011000096F8D9307168BB600AFB03F4321992F883
:10111000E8505DB1D2F8E4308B42E8463FF428AFA6
:10112000002182F8E810C2F8E010C5467368064A4C
:101130009B0A01331381B2E6C134002000ED00E0C8
:101140000400FA05F8340020B0240020CDCCCC3DBA
:101150006666663FC4340020014B1870704700BFBC
:10116000BC24002030B54FF000542C4B22689A422A
:1011700085B023D1637D0BB3294A2A481370237DA0
:1011800003724FF48073C0F8F8314FF40073C0F865
:101190000C3300254FF44073C0F820342249C0F8C6
:1011A000E450C922093000F0E7FA2046E02229463F
:1011B00000F0F4FA0124204605B030BD03F0D8FC5D
:1011C000044608B90024F6E7184A194D136C43F099
:1011D00000731364AA6D174B9A42F3D12B6E013B37
:1011E0007E2BEFD8144A07CA01AB83E807001846E4
:1011F000032100F081FD6B6D83424FF00003E1D1CC
:101200002A6D8A4201BFAB65054B2A6E1A7003BF77
:101210000A4BEA6D1A601C46CDE700BF9AAD44C583
:10122000BC240020F83400201600002000380240C2
:10123000006600405041A0B05866004010230020D6
:1012400037B51A4D00F08AFD02236B71184B2881C7
:101250001968184801F034FB00230193164B174915
:1012600000931748174B4FF4805201F0A9FF164B1B
:10127000197811B1124801F0CBFF01F07DFC044652
:10128000FFF7E6FB4FF4C873B0FBF3F202FB130366
:1012900004F5167010FA83F00C4B186003F05EFC36
:1012A00008B10F232B8103B030BD00BFB024002054
:1012B00010230020303A0020490D0008C0240020EF
:1012C000C83400204D0E0008BC240020C434002087
:1012D0002DE9F04F2DED028B8CA7D7E900670FF2B7
:1012E0003429D9E90089844C95B00DAD9FED808BF0
:1012F000FFF7E4FCDFF824B200230C93ADF83C3098
:101300000D936B6000230DF125028DED008B4FF0E6
:10131000010A09A958468DF825308DF824A001F05E
:101320007DFA9DF824200023002A40F0AE8020465C
:1013300001F076FF0546002847D1DFF8E4B101F05F
:101340001BFCDBF8003098423FD301F015FC0790FE
:10135000FFF77EFB079A4FF4C873B0FBF3F101FB74
:10136000130302F5167010FA83F0CBF80000DFF8D3
:10137000B4B19BF800100791002914BF2B465346C7
:1013800010A88DF83030FFF77BFB0799C1F11002F0
:10139000D2B2062A10AB28BF062219440DF1310043
:1013A000079200F0E9F9079A0CAB03931823029314
:1013B0000132524BD2B2CDE900A304923B463246F1
:1013C000204601F073FF8BF8005001F0D5FB4C4A2A
:1013D0004C4D1368C31AB3F57A7F32D3106001F015
:1013E000CDFB02460B46204601F0F8FF204601F0F7
:1013F00017FF30B32B7ADFF830A1002B14BF032383
:1014000002238AF8053001F0B7FB0DF1400B4FF4D1
:101410007A730122B0FBF3F05946CAF80000504637
:1014200000F0EAFA18230293374B019380B240F29E
:101430005513CDE903B0009342464B46204601F0D8
:1014400035FF2B7AABB101F097FB4FF0000A8346D2
:101450004FF48A7295F8D900504400F0030002FB63
:10146000005393F8E81071B30AF1010ABAF1040FBE
:10147000F0D1C82002F0F2FF2B7A002B7FF435AFB9
:1014800015B0BDEC028BBDE8F08F1946102210A8F4
:1014900000F084F90DF126030AAA0CA9584600F0C1
:1014A00043FF95E8030011AB83E803009DF83C304F
:1014B0008DF84C300C9B109310A9DDE90A232046CF
:1014C00002F060F91EE7D3F8E01049B12B68FA2B5F
:1014D00038BFFA23ABEB01010533B1EB430FC3D3A4
:1014E000FFF79CFB4FF48A720028BDD1C1E700BF13
:1014F0000000000000000000C8340020C0340020BC
:10150000283A0020F83400202C3A0020401DA12069
:1015100026812A0BF1C6A7C1D068080F303A0020F7
:10152000C4340020C1340020B024002008B5054890
:1015300000F098FFBDE80840034A0449002003F08A
:101540003DBD00BF303A0020644B0020150E00085E
:1015500070B5104B1B780133DBB2012B0C4612D84F
:101560000D4B1D6829684FF47A730E6AA2FB033293
:10157000014622462846B047844204D1074B002248
:101580001A70012070BD4FF4FA7002F067FF00205E
:10159000F8E700BF1C23002020230020584B002028
:1015A00007B50023024601210DF107008DF8073031
:1015B000FFF7CEFF20B19DF8070003B05DF804FBF4
:1015C0004FF0FF30F9E700000A4608B50421FFF7A5
:1015D000BFFF80F00100C0B2404208BD30B4074BED
:1015E0000A461978064B53F821402368DD69054BFC
:1015F0000146AC46204630BC604700BF584B002037
:1016000020230020A086010070B503F0FBF8094EEE
:10161000094D3080002428683388834208D903F0BC
:10162000EBF82B6804440133B4F5803F2B60F2D310
:1016300070BD00BF5A4B0020184B002003F090B93A
:1016400000F1006000F580300068704700F1006034
:10165000920000F5803003F01BB90000054B1A68BA
:10166000054B1B889B1A834202D9104403F0C4B86F
:1016700000207047184B00205A4B0020024B1B687B
:10168000184403F0C1B800BF184B0020024B1B6880
:10169000184403F0D1B800BF184B002010F003032A
:1016A0000AD1B0F5047F05D200F10050A0F510403A
:1016B000D0F80038184670470023FBE700F10050CF
:1016C000A0F51040D0F8100A70470000064991F8C4
:1016D000243033B10023086A81F824300822FFF750
:1016E000B5BF0120704700BF1C4B0020014B18689C
:1016F000704700BF002004E070B5194B1D68194BFE
:101700000138C5F30B0408442D0C04221E88A642A0
:101710000BD15C680A46013C824213460FD214F991
:10172000016F4EB102F8016BF6E7013A03F10803CD
:10173000ECD181420B4602D22C2203F8012B0A4A3B
:1017400005241688AE4204D1984284BF967803F8E7
:10175000016B013C02F10402F3D1581A70BD00BFC5
:10176000002004E0DC500008C8500008704700006A
:10177000704700007047000010B50023934203D06B
:10178000CC5CC4540133F9E710BD000003460246A7
:10179000D01A12F9011B0029FAD1704702440346FE
:1017A000934202D003F8011BFAE770472DE9F84392
:1017B0001F4D144695F824200746884652BBDFF893
:1017C00070909CB395F824302BB92022FF21484615
:1017D0002F62FFF7E3FF95F82400C0F10802A24250
:1017E00028BF2246D6B24146920005EB8000FFF7A3
:1017F000C3FF95F82430A41B1E44F6B2082E1744EC
:101800009044E4B285F82460DBD1FFF75FFF002845
:10181000D7D108E02B6A03EB82038342CFD0FFF7D6
:1018200055FF0028CBD10020BDE8F8830120FBE75D
:101830001C4B0020024B1A78024B1A70704700BFF5
:10184000584B00201C23002003494FF461430B60D8
:10185000024B186802F0DEBC444B0020202300201D
:10186000094B10B51422044600211846FFF796FFD5
:10187000064A074B127804600146BDE8104053F851
:10188000220002F0C7BC00BF444B0020584B002090
:10189000202300202DE9F3470D4604460021904601
:1018A000284640F27912FFF779FF234620220021D3
:1018B000284601F009FF231D02222021284601F0BD
:1018C00003FF631D03222221284601F0FDFEA31D14
:1018D00003222521284601F0F7FE04F10803102217
:1018E0002821284601F0F0FE04F1100308223821D7
:1018F000284601F0E9FE04F11103082240212846A0
:1019000001F0E2FE04F1120308224821284601F00A
:10191000DBFE04F1140320225021284601F0D4FEFE
:1019200004F1180340227021284601F0CDFE04F195
:1019300020030822B021284601F0C6FE04F121034D
:101940000822B821284601F0BFFE04F12207C02674
:101950003B46314608222846083601F0B5FEB6F56A
:10196000A07F07F10107F3D194F832308DF80730EA
:1019700031460DF107030822284601F0A5FE002696
:1019800004F1330A9DF807304FEAC6099E4209F573
:10199000A47720D394F83231502B28BF50238DF8F0
:1019A0000730B8F1000F08D139460DF107030722BF
:1019B000284601F089FE09F24F17002604F233147D
:1019C0009DF807309E4207EBC6010DD30731C808CA
:1019D00002B0BDE8F0870AEB060308223946284624
:1019E00001F072FE0136CDE7A3190822284601F066
:1019F0006BFE0136E4E7000013B5044608460021FB
:101A000001602346C0F803102022019001F05CFE23
:101A10000198231D0222202101F056FE0198631D2A
:101A20000322222101F050FE0198A31D032225214B
:101A300001F04AFE019804F108031022282101F068
:101A400043FE072002B010BDF7B5047F05460E46E1
:101A50002CB1838A122B02D9012003B0F0BD0023E0
:101A6000194607220096284601F0F2FC731C0093E9
:101A7000012200230721284601F0EAFCD4B9B31C57
:101A80000093052223460821284601F0E1FC0D249D
:101A9000B378102BE0D83746B278BB1B934210D3F3
:101AA0002B7FA88A0734E408B3B9844294BF00208E
:101AB0000120D2E7AB8ADB00083BDB08B3700824C7
:101AC000E6E7FB1C0093214600230822284601F08C
:101AD000BFFC08340137DFE7201A18BF0120BCE73C
:101AE000F7B5047F05460E462CB1838ACA2B02D96E
:101AF000012003B0F0BD00231946009608222846B5
:101B000001F0A6FC731CD4B90822009311462346A9
:101B1000284601F09DFC10247378C82BE8D80123D7
:101B200072785F1C013B934210D32B7FA88A073445
:101B3000E408B3B9844294BF00200120D9E7AB8AFE
:101B4000DB00083BDB0873700824E5E7F31900931A
:101B5000214600230822284601F07AFC08343B463F
:101B6000DEE7201A18BF0120C3E70000F7B50D46D5
:101B700004460021164628468122FFF70FFE234621
:101B800008220021284601F09FFD94F90120637886
:101B9000002AB8BF7F238DF807309EB90DF10703E7
:101BA00007220821284601F08FFD0F270026023466
:101BB0009DF807309E4207EBC60105D30731C808E0
:101BC00003B0F0BD0827F1E7A3190822284601F069
:101BD0007BFD0136ECE70000F7B50E460546002117
:101BE00014463046CE22FFF7D9FD2B46282200218D
:101BF000304601F069FD2B7AC82B28BFC8238DF829
:101C000007308CB90DF1070308222821304601F076
:101C10005BFD30242F469DF807207B1B934205D3A4
:101C2000E01DC00803B0F0BD2824F3E707F1090365
:101C300021460822304601F047FD08340137EAE723
:101C4000F7B5047F05460E4634B1838AB3F5827F2B
:101C500002D9012003B0F0BD00960123102200211B
:101C6000284601F0F5FBDCB9B31C0093092223469A
:101C70001021284601F0ECFB19247388B3F5807F0E
:101C8000E7D837467288BB1B934210D32B7FA88AB4
:101C90000734E408B3B9844294BF00200120D9E797
:101CA000AB8ADB00103BDB0873801024E5E73B1DAB
:101CB0000093214600230822284601F0C9FB08347E
:101CC0000137DFE7201A18BF0120C3E730B5094DFF
:101CD0000A4491420DD011F8013B5840082340F3CB
:101CE0000004013B2C4013F0FF0384EA5000F6D1BE
:101CF000EFE730BD2083B8EDF7B54FF0FF33DFF8E5
:101D000054C0DFF854E000EB81011A4688421CD031
:101D100050F8044B019401AF042417F8015B82EAE8
:101D200005620825DB18164605F1FF355241002EE5
:101D3000BCBF83EA0C0382EA0E0215F0FF05F1D165
:101D4000013C14F0FF04E8D1E0E7D843D14303B0ED
:101D5000F0BD00BF9336EAA9EBE1F042F7B5384A8F
:101D6000106851686B4603C36A46364936480823F3
:101D700003F058F90446002833D10A25334A106885
:101D800051686B4603C36A4631492F48082303F064
:101D900049F90446002849D00369B3F5702F45D8A6
:101DA000B0F8661040F2AC7291423FD1294A024429
:101DB00002F15C018B4239D35C3B234900209E1A1F
:101DC000FFF784FF3246074604F164010020FFF765
:101DD0007DFFA3689F4229D1E368984208BF002590
:101DE00024E00369B3F5702F27D8418B40F2AC7221
:101DF000914220D1174A024402F110018B4218D3BC
:101E0000103B114900209D1AFFF760FF2A46064645
:101E100004F118010020FFF759FFA3689E4202D188
:101E2000E368984201D00D25A8E70025284603B0B5
:101E3000F0BD1025A2E70C25A0E70B259EE700BF0B
:101E4000FC500008DCFF0E000000010805510008EE
:101E500090FF0E000800FFF710B5037C044613B98D
:101E6000006803F0C7F8204610BD00000023BFF350
:101E70005B8FC360BFF35B8FBFF35B8F8360BFF388
:101E80005B8F7047BFF35B8F0068BFF35B8F70475A
:101E900070B505460C30FFF7F5FF05F1080604465E
:101EA0003046FFF7EFFFA04206D930466D68FFF7D6
:101EB000E9FF2544281A70BD3046FFF7E3FF201ADA
:101EC000F9E7000070B50546406898B105F10800D3
:101ED000FFF7D8FF05F10C0604463046FFF7D2FFA6
:101EE0008442304694BF6D680025FFF7CBFF013C6C
:101EF0002C44201A70BD000038B50C460546FFF78B
:101F0000C7FFA04210D305F10800FFF7BBFF044450
:101F10006868B4FBF0F100FB1144BFF35B8F012054
:101F2000AC60BFF35B8F38BD0020FCE72DE9F041CA
:101F3000144607460D46FFF7C5FF844228BF0446F6
:101F4000D4B1B84658F80C6B4046FFF79BFF3044BD
:101F5000286040467E68FFF795FF331A9C4203D8FD
:101F60006C600120BDE8F0816B60A41B3B68AB6036
:101F70002044E8600220F5E72046F3E738B50C4638
:101F80000546FFF79FFFA04210D305F10C00FFF7B5
:101F900079FF04446868B4FBF0F100FB1144BFF31F
:101FA0005B8F0120EC60BFF35B8F38BD0020FCE746
:101FB0002DE9FF41884669460746FFF7B7FF6C46A3
:101FC00006B204EBC6060025B44209D06268206858
:101FD00008EB0501FFF7D0FB636808341D44F3E705
:101FE00029463846FFF7CAFF284604B0BDE8F0810D
:101FF000F8B505460C300F46FFF744FF05F108061B
:1020000004463046FFF73EFFA042304688BF6C686A
:10201000FFF738FF201A386020B130462C68FFF7F0
:1020200031FF2044F8BD000073B5144606460D4646
:10203000FFF72EFF844228BF04460190DCB101A9BE
:102040003046FFF7D5FF019B33B93268C5E902334B
:10205000C5E9002401200CE09C4238BF01942860AF
:10206000019868608442F5D93368AB60241AEC604B
:10207000022002B070BD2046FBE700002DE9FF41C1
:102080000F466946FFF7D0FF6C4600B204EBC0056F
:102090000026AC4209D0D4F8048054F8081BB819C3
:1020A0004246FFF769FB4644F3E7304604B0BDE81B
:1020B000F081000038B50546FFF7E0FF0446014611
:1020C0002846FFF719FF204638BD0000012188424D
:1020D00038BF084602F078BF08B102F08BBF7047E6
:1020E00003685B68184700000020704770470000D5
:1020F0000020704700F5805090F8D800C0F34000F1
:102100007047000000F5805090F9E0007047000033
:1021100000F58050C0F8DC1001207047F7B50C685E
:10212000BDF8207014F0005473D10D7B082D70D8C9
:10213000302585F31188056AAE6876010CD4AC6849
:10214000240108D4AC6814F0805460D184F3118861
:10215000204603B0F0BD01240E6804F1180C002ED7
:10216000B8BFF6004FEA0C1CB4BF46F00406760573
:1021700045F80C600E680FFA84FC16F0804F18BF0B
:1021800005EB0C1E05EB0C1C1EBFDEF8806146F053
:102190000206CEF880610E7BCCF8846105EB041555
:1021A0008E68C5F88C614E68C5F88861DCF880518E
:1021B00045F00105CCF8805141F2780500EB441C54
:1021C000660105EB4414AC440444CCE900230D46FD
:1021D000083401F10C0C55F804EB44F804EB6545A8
:1021E000F9D12D882580841904F5805407F0030562
:1021F00094F8946026F00B06354384F8945000243C
:1022000084F31188009700F007FD0120A1E7022464
:10221000A2E74FF0FF309CE713B500F58054019121
:10222000E06EFFF74FFE1F280AD90199E06E2022C9
:10223000FFF7BEFEA0F120035842584102B010BD86
:102240000020FBE708B5302383F3118800F58050A8
:10225000C06EFFF70BFE002383F3118808BD00005A
:1022600000220260828142608260704710B50022C5
:102270000023C0E900230023044603810C30FFF74C
:10228000EFFF204610BD0000F0B5054600F5805078
:102290000C4690F8D83013F0040FC3F3800108BF48
:1022A000114661F3820380F8D83005EB441303F53F
:1022B0008453103389B01B79D8074FEA44162FD5C1
:1022C00082B319072ED46846FFF7D0FF05EB4413FD
:1022D00003F5845303AA03F10807186859681446E4
:1022E00003C40833BB422246F7D1186820609B889C
:1022F000A380DDE90E23CDE900230123ADF80830EA
:102300002B6869469B6B28469847354405F58455EC
:1023100010352B791A075CBF43F008032B7101E0DD
:10232000002AF2D109B0F0BD2DE9F0479A4688B0F5
:10233000074688469146302383F3118807F5805479
:102340006846FFF793FFE06EFFF7A2FD1F282AD92A
:10235000E06E20226946FFF7ADFE202823D103ADB1
:10236000444605AB2E4603CE9E4220606160354652
:1023700004F10804F6D130682060B388A380DDE959
:102380000023C9E90023BDF80830AAF80030002373
:1023900083F3118853464A464146384608B0BDE8A3
:1023A000F04700F0F7BB002080F3118808B0BDE8CB
:1023B000F08700002DE9F84F182204460F4604303C
:1023C0000021FFF7EBF92046234B40F8243BFFF7B1
:1023D00047FF04F13800FFF749FF04F1580804F5FE
:1023E00082554646183530462036FFF73FFFAE424D
:1023F000F9D104F580554FF480534FF00009C5E939
:102400001739C5F858800123EE6604F5875804F59E
:102410008456C5F8649085F8683085F870301836B1
:1024200008F118084FF0000A4FF0000B46E908AB1E
:10243000A6F11800FFF714FF203646F8289C464501
:10244000F4D185F8E07017B1044800F08FFB044B1D
:1024500023622046BDE8F88F38510008105100086B
:102460000068004010B5044B197804464A1C1A70E5
:10247000FFF7A0FF204610BD604B00202DE9F0477C
:10248000002950D0294B2A4FB7FBF1F599428CBF58
:102490000A231123581EB5FBF3FC03FB1C53C4B2E3
:1024A0002BB102280346F5D80020BDE8F0870CF1D7
:1024B000FF36B6F5806FF7D2C4EBC40E0EF10303FE
:1024C0004FEAE309C3F3C703A4EB030809F1010AC8
:1024D0004FF47A755FFA88F009FB05555AFA88F8C7
:1024E000B5FBF8F5B5F5617FC1BF0EF1FF33C3F35E
:1024F000C703E01AC0B25C1C50FA84F40CFB04F46D
:10250000B7FBF4F4A142CFD1013BDBB20F2BCBD808
:102510000138C0B20728C7D8002110711680917009
:10252000D3700120C1E70846BFE700BF3F420F005C
:1025300080DE800270B505460E464FF47A742B6A31
:102540005B6803F00103B34207D04FF47A7001F0E7
:1025500085FF013CF3D1204670BD0120FCE700005F
:1025600070B5026A936913F0700F17D000230C4DF9
:10257000936141F2900400EB4312224411794E071B
:1025800009D5890707D5016A55F823608E6011794E
:1025900041F0040111710133032BECD170BD00BF78
:1025A0002451000873B51D46036A16469A68D2077F
:1025B000044609D59A6801219960C2F34002CDE929
:1025C00000650021FFF760FE236A9A68D1050BD5EC
:1025D0009A684FF480719960C2F34022CDE900659A
:1025E00001212046FFF750FE236A9A68D2030BD5DB
:1025F0009A684FF480319960C2F34042CDE900659A
:1026000002212046FFF740FE04F58053D3F8DC009A
:1026100010B103681B699847204602B0BDE87040BE
:10262000FFF79EBFF8B50446066A002977D106F188
:102630000C073868800775D006EB01153868D5F8A7
:10264000B00110F0040FD5F8B0011ABFC00840F077
:102650000040400D6062D5F8B0C11CF0020F1CBFF5
:1026600040F080406062D5F8B40106EB011100F043
:102670000F0084F83000D1F8B80184F82800D1F8B0
:10268000B801000A84F82900D1F8B801000C84F8D8
:102690002A00D1F8B801000E84F82B00D1F8BC0153
:1026A00084F82C00D1F8BC01000A84F82D00D1F880
:1026B000BC01000C84F82E00D1F8BC11090E84F87E
:1026C0002F103821396004F1440004F1240104F191
:1026D000300551F8046B40F8046BA942F9D1098820
:1026E0000180C4E90E2321460023A4F8403051F8AC
:1026F000383B20469B6B984704F5805393F8D820CD
:10270000D3F8DC0042F0040283F8D82010B103684B
:102710001B6998472046BDE8F840FFF721BF06F146
:10272000100786E7F8BD000010B5044600F026FA51
:1027300002460B4652EA030102D0013A63F100035C
:102740000449086820B12146BDE81040FFF76ABF80
:1027500010BD00BF5C4B0020F0B5302181F3118823
:10276000DFF848E000F583511831002441F2900C65
:1027700000EB441565442E7977070ED4F6060CD588
:10278000D1E9007697429E4107D2066A5EF824702E
:10279000B7602E7946F004062E710134032C01F146
:1027A0002001E5D1002383F31188F0BD24510008F6
:1027B00008B5302383F31188FFF7D2FE002383F39B
:1027C000118808BD036A9B6813F0E05F14BF012005
:1027D0000020704708B5302383F3118800F580503E
:1027E000C06EFFF755FB002383F3118843090CBF2C
:1027F0000120002008BD0000F8B51E46002313701C
:102800000F4605461446FFF7E5FF80F001003870DB
:102810001EB12846FFF7D6FF2070F8BD2DE9B8415C
:102820000C4615461F46804600F0A8F90B46217855
:10283000024609B9287850B14046FFF78DFFFFF7EF
:10284000B7FF3B462A462146FFF7D6FF0120BDE8E9
:10285000B881000070B5302686F31188174B1A6CCA
:1028600042F080621A641A6A42F080621A621A6A3E
:1028700022F080621A62002383F3118800F58054ED
:1028800094F8D83013F0010516D1A9B186F3118858
:1028900003213F2001F0F2FA0321402001F0EEFA7B
:1028A0000321412001F0EAFA94F8D83043F0010303
:1028B00084F8D83085F3118870BD00BF003802401D
:1028C0002DE9F04300F5805589B095F8E030012BF3
:1028D00004460F467ED8DFF8F88158F823200AB95D
:1028E00048F82300D8F80090E761B9F1000F64D0F0
:1028F00095F8E030012B6FD001212046FFF7AAFFA9
:10290000302383F31188226A136823F002031360D3
:10291000226A136843F001031360236A00265E6194
:1029200086F3118801212046FFF704FE002800F0FD
:102930009080E86EFFF79AFA04F58358B14608F1E3
:102940001808202200216846FEF728FF02A8FFF79A
:1029500087FCCDF818906A4608EB06030DF1180EB7
:102960009446BCE80300F44518605960624603F1E0
:102970000803F5D1DCF80000186020369CF804202C
:102980001A71602EDDD195F8D8306FF382030026DE
:1029900085F8D8306A4639462046ADF80060ADF873
:1029A00002608DF80460FFF769FD236A50BB4FF4A5
:1029B00000421A6009B0BDE8F08341F2E800FFF779
:1029C00085FB064610B14946FFF7F4FCC8F80060E5
:1029D000002E8DD10020EDE7D8F8000003689B6A37
:1029E00098470146002887D1D8F80000FFF732FF4A
:1029F000D8F80000036839465B68984700287FF4E0
:102A00007BAFE7E765221A609DF802309DF803105E
:102A1000226A1B06090401F4702103F040730B4382
:102A2000BDF80010C1F309010B439DF8041009051E
:102A300001F4E0010B43D361236A13225A61226A35
:102A4000136823F00103136031462046FFF772FD3F
:102A500008B9236AABE795F8E02092BB216AD1F868
:102A6000003243F00103C1F80032216AD1F800328C
:102A700023F47C5323F00E03C1F80032216AD1F80D
:102A8000003243F46063C1F80032236AC3F81422B1
:102A9000236AC3F80422236A41F6FF71C3F80C12BB
:102AA000236AC3F84022236AC3F84422236A01221E
:102AB000C3F81C22226AD2F8003223F00103C2F8C4
:102AC000003295F8D83043F0020385F8D83071E72A
:102AD0005C4B002008B500F051F850EA01030246B3
:102AE00002D0421E61F10001044B186810B10B4680
:102AF000FFF758FDBDE8084001F0A2B85C4B00208C
:102B000008B50020FFF710FEBDE8084001F098B8B6
:102B100008B50120FFF708FEBDE8084001F090B8B5
:102B200000B59BB0EFF3098168226846FEF724FEEA
:102B3000EFF30583014B9B6BFEE700BF00ED00E068
:102B400008B5FFF7EDFF000000B59BB0EFF309817A
:102B500068226846FEF710FEEFF30583014B5B6BBE
:102B6000FEE700BF00ED00E0FEE700000FB408B58F
:102B7000029801F023FCFEE701F03CBF01F01EBF0C
:102B80000139C9B202299EBF00EBC1000023C0E990
:102B9000013370472DE9F8431E461B885B07054645
:102BA000884618D4044600F118094C4513D06368D0
:102BB0006BB12B6828465B6B98473388A768C1B216
:102BC00043F0040360684246B8470834EDE7A36861
:102BD000002BEED1F9E70120BDE8F88373B56C4610
:102BE00084E80600014600224E68D5B26EB98E68B0
:102BF0005EB900EBC200021D94E80300013582E8D3
:102C000003001D70012002B070BD0132032A01F1E2
:102C10000801E9D10020F6E72DE9F04F2DED028BF8
:102C200089B09FED258BBDF8508004468B46054644
:102C300000F11809002708F0040AA94536D06B688E
:102C40000BB9AB6863B1BAF1000F0BD12368204612
:102C50005B6B98474346C1B25A46D5E90106B04777
:102C60000835EAE7002FFBD18DED008BADF8087039
:102C70005B4603AA0BF1080C18685968174603C78E
:102C8000083363453A46F7D1186838609B88BB80A3
:102C9000FFF774FF0423ADF808302368CDE9000185
:102CA0009B6B6946204698470127D9E7012009B068
:102CB000BDEC028BBDE8F08F0000000000000000BA
:102CC0002DE9F041456A15B94162BDE8F0814B68D4
:102CD00023F06047C3F38A464FEAD37EC3F380787C
:102CE00016EA230638BF3E46AC462B465A68BEEB72
:102CF000D27F22F060440AD0002A18DAA40CB44231
:102D000017D19D420FD10D60DEE71346EEE7A742D3
:102D100007D102F08044C2F3807242450BD054B117
:102D2000EFE708D2EDE7CCF800100B60CDE7B44236
:102D300001D0B442E5D81A689C46002AE5D1196052
:102D4000C3E700002DE9F047089D01F007044FEAB2
:102D5000D508224405F0070500EBD1004FF47F4968
:102D6000944201D1BDE8F08704F0070705F0070A97
:102D700057453E4638BF5646C6F10806111B8E42DF
:102D800028BF0E46E10808EBD50E415C13F80EC0D3
:102D9000B94029FA06F721FA0AF1FFB28CEA0101DB
:102DA00047FA0AF739408CEA010C03F80EC03444A4
:102DB0003544D5E780EA0120082341F2210201B21F
:102DC0004000002980B203F1FF33B8BF504013F038
:102DD000FF03F4D17047000038B50C468D18A542AA
:102DE00000D138BD14F8011BFFF7E4FFF7E700003E
:102DF00042684AB1136843604389818901339BB2B9
:102E00009942438138BF83811046704770B588B0BE
:102E1000202204460D4668460021FEF7BFFC2046EE
:102E20000495FFF7E5FF024658B16B46054608AE2C
:102E30001C4603CCB44228606960234605F10805AE
:102E4000F6D1104608B070BD082817D909280CD053
:102E50000A280CD00B280CD00C280CD00D280CD034
:102E60000E2814BF4020302070470C2070471020DF
:102E700070471420704718207047202070470000CA
:102E8000082817D90C280CD910280CD914280CD9CB
:102E900018280CD920280CD930288CBF0F200E20E0
:102EA0007047092070470A2070470B2070470C209C
:102EB00070470D20704700002DE9F843078C072F5D
:102EC00004461ED9D0E9029800254FF6FF73C5F1DC
:102ED0002006A5F1200029FA05F108FA06F628FADD
:102EE00000F031430143C9B21846FFF763FF0835CC
:102EF000402D0346EBD1E1693A46BDE8F843FFF7C0
:102F00006BBF4FF6FF70BDE8F883000010B54B684B
:102F100023B9CA8A63F30902CA8210BD04691A6818
:102F20001C600361C38A013BC3824A60EFE7000073
:102F30002DE9F84F1D46CB8A0F46C3F30901052939
:102F4000814692460B4630D00020AAB207F11A04FF
:102F50009EB2042E1FFA80F80FD8904503F10103AA
:102F600006D3FB8A0A4462F30903FB8201201AE0BC
:102F70001AF80060E6540130EAE79045F1D2A1F179
:102F8000050B1C237C68BBFBF3F203FB12BB1FFA8F
:102F90008BF6002C45D14846FFF72AFF044638B986
:102FA00078606FF00200BDE8F88F4FF00008E6E7A8
:102FB000002606607860ADB24FF0000B454510D991
:102FC0000AEB0803221D13F8011B9155B1B208F159
:102FD00001081B291FFA88F82BD0454506F1010688
:102FE000F1D8FB8AC3F30902154465F30903BCE772
:102FF000013292B21C462368002BF9D16B1F0B449F
:103000001C21B3FBF1F301339BB29A42D3D2BBF143
:10301000000FD0D14846FFF7EBFE20B9C4F800B04E
:10302000BFE70122E7E7C0F800B05E462060044633
:10303000C1E74545D5D94846FFF7DAFE08B9206013
:10304000AFE7C0F800B0002620600446B6E70000F5
:103050002DE9F04F2DED028B1C4683B05B69019288
:1030600007468846002B00F0A780238C2BB1E2692D
:10307000002A00F0A180072B35D807F10C00FFF7DC
:10308000B7FE054638B96FF00205284603B0BDEC1F
:10309000028BBDE8F08F14220021FEF77FFB228C0B
:1030A000E16905F10800FEF767FB208C013080B272
:1030B000FFF7E6FEFFF7C8FE013880B2208401303A
:1030C00028746369228C1B782A4403F01F0363F081
:1030D0003F0348F000411372384669602946FFF704
:1030E000EFFD0125D1E702339BB20722C18A0633E7
:1030F000B3FBF2F3828A521A9BB292B29342C2D8C5
:1031000000F10C034FF0000908EE103A4FF0800A6E
:103110004E464D4618EE100AFFF76AFE8346002819
:10312000B1D014220021FEF739FB002E3AD1019BC9
:10313000ABF8083002220BF1080E1FFA82FC0CF1EA
:103140000100BCF1060F218C80B201D88E422BD336
:10315000FFF796FEFFF778FE62691278013802F0F9
:103160001F028E4208BF4FF0400A42EA49121BFA82
:1031700080F14AEA020A013048F0004281F808A0D2
:103180008BF81000CBF8042059463846FFF798FD1D
:10319000238C0135B3422DB289F001094FF0000AAA
:1031A000B8D172E70022C6E7E169895D0EF8021026
:1031B0000136B6B20132C0E76FF0010565E70000E5
:1031C000F8B515460E463022002104461F46FEF78C
:1031D000E5FA069B6360B5F5001F079BA76034BF47
:1031E0006A094FF6FF72A36297B2E66104F110001C
:1031F00000239A4206D800230360A782E382238338
:10320000E360F8BD0660013330462036F1E7000088
:1032100003781BB94BB2002BC8BF01707047000088
:1032200000787047F8B50C46C969074611B9238C78
:10323000002B37D1257E1F2D34D8387828BB228C1F
:10324000072A2CD8268A36F003032BD14FF6FF70BD
:10325000FFF7C2FD20F001003102400441EA0561A0
:10326000400C41EA40254FF6FF7223462946384676
:10327000FFF7EEFE002807DD626913780133DBB249
:103280001F2B88BF00231370F8BD218A2D0645EA45
:10329000012505432046FFF70FFE0246E5E76FF0E4
:1032A0000300F1E76FF00100EEE7000070B58AB0AF
:1032B000044616460021282268461D46FEF76EFA8F
:1032C000BDF83830ADF810300F9B05939DF84030B5
:1032D0008DF81830119B07936946BDF84830ADF85A
:1032E00020302046CDE90265FFF79CFF0AB070BD93
:1032F0002DE9F041D36905460C4616460BB9138CEF
:103300005BBB377E1F2F28D895F80080B8F1000FDF
:1033100026D03046FFF7D0FD3378210241EAC33191
:1033200041EA0801338A41EA076141EA0341024662
:10333000334641F080012846FFF78AFE00280ADD67
:103340003378012B07D1726913780133DBB21F2B5D
:1033500088BF00231370BDE8F0816FF00100FAE729
:103360006FF00300F7E70000F0B58BB004460D46A0
:1033700017460021282268461E46FEF70FFA9DF8E0
:103380004C305A1E534253418DF800309DF8403066
:10339000ADF81030119B05939DF848308DF818302A
:1033A000149B07936A46BDF85430ADF82030294687
:1033B0002046CDE90276FFF79BFF0BB0F0BD000081
:1033C000406A00B104307047436A1A684262026979
:1033D0001A600361C38A013BC38270472DE9F04143
:1033E000D0F82080194E14461D464146002709B9E1
:1033F000BDE8F081D1E90223A21A65EB03039642EE
:1034000077EB03031ED2036A8B420DD1FFF77EFDDB
:10341000036A1B68036203690B60C38A0161016A66
:10342000013BC3828846E2E7FFF770FD0B68C8F8EE
:10343000003003690B60C38A0161013BC382D8F885
:103440000010D4E788460968D1E700BF80841E00D9
:103450002DE9F04F8BB00D46DDF8509014469B4699
:103460008046002800F01981B9F1000F00F01581A5
:10347000531E3F2B00F21181012A03D1BBF1000F33
:1034800040F00B810023CDE90833B8F81430B5EBD8
:10349000C30F4FEAC30703D300200BB0BDE8F08F82
:1034A0002B199F42D8F80C303ABF7F1BFFB227463A
:1034B0001BB9D8F81030002B7AD0272D4ED8C5F183
:1034C0002806B7424FF000032CBFF6B23E460093E9
:1034D0002946D8F8080008AB3246FFF733FCA7EBC3
:1034E000060A35445FFA8AFAB8F8143003F100533B
:1034F000053BDB000493D8F80C3003932821039B91
:1035000013B1BAF1000F2CD1D8F8100040B1BAF1C4
:10351000000F05D0009608AB5246691AFFF712FC5F
:1035200038B2002FB8D066070AD00AAB03EBD4013B
:10353000624211F8083C02F00702134101F8083C0E
:10354000082C3CD9102C40F2B580202C40F2B780DA
:10355000BBF1000F00F09C80082334E0BA4600263F
:10356000C2E7049BE02B28BFE02306930B44AB4249
:10357000059314D95A1B03980096924534BF5246BE
:10358000D2B2691A08AB04300792FFF7DBFB079A47
:103590001644AAEB020A1544F6B25FFA8AFA049BB3
:1035A000069A05999B1A0493039B1B680393A6E74D
:1035B0000093D8F8080008AB3A462946AEE7BBF1BD
:1035C000000F13D00123B4EBC30F6CD0082C12D81A
:1035D0009DF82030621E23FA02F2D50706D54FF07F
:1035E000FF3202FA04F423438DF820309DF8203096
:1035F00089F8003051E7102C12D8BDF82030621E37
:1036000023FA02F2D10706D54FF0FF3202FA04F492
:103610002343ADF82030BDF82030A9F800303CE756
:10362000202C0FD80899631E21FA03F3DA0705D579
:103630004FF0FF3202FA04F40C430894089BC9F8D7
:1036400000302AE7402C2BD0DDE90865611EC4F16B
:103650002102A4F1210326FA01F105FA02F225FA6A
:1036600003F311431943CB0712D50122A4F1200320
:10367000C4F1200102FA03F322FA01F1A2405242FE
:1036800043EA010363EB430332432B43CDE90823B1
:10369000DDE90823C9E90023FFE66FF00100FCE63D
:1036A0006FF00800F9E6082CA0D9102CB3D9202C13
:1036B000EED8C3E7BBF1000FADD0022383E7BBF127
:1036C000000FBBD004237EE730B5012A144638BF73
:1036D0000124402C85B028BF40240025012ACDE9D3
:1036E000025518D81B788DF8083063070AD004AB50
:1036F00003EBD405624215F8083C02F00702934040
:1037000005F8083C009103462246002102A8FFF775
:1037100019FB05B030BD082AE4D9102A03D81B884C
:10372000ADF80830E1E7202A8DBFD3E900231B68FC
:103730000293CDE90223D8E710B5CB681BB98B60A3
:103740000B618B8210BD04691A681C600361C38A17
:10375000013BC382CA60F0E703064CBFC0F3C03030
:103760000220704708B50246FFF7F6FF022806D18F
:103770005306C2F30F2001D100F0030008BDC2F3CD
:103780000740FBE72DE9F04F93B0CDE904230A6829
:1037900004461046FFF7E0FF022814BFC2F30626D6
:1037A0000026002A0D46824680F2028212F0C049AD
:1037B00040F0FE81097B002900F0FA81022803D045
:1037C0002378B34240F0F781C2F3046306931046B6
:1037D00002F07F030393FFF7C5FF039B29444FEAE1
:1037E000834848EA0A4848EA4668CE78002300221F
:1037F000CDE90823F309834648EA0008029367D01D
:10380000039B009302466768534608A92046B847C1
:10381000002868D0276A4FB9414604F10C00FFF731
:10382000F5FA074690B96FF002006AE03B699845E7
:103830000DD03F68002FF9D1414604F10C00FFF78D
:10384000E5FA07460028EED0236A3B60276297F826
:1038500017C006F01F08CCF3840CACEB08001FFA6D
:1038600080FE0028B8BF0EF12000A8EB0C031FFA61
:1038700083FED7E90221B8BF00B2002B0793BEBF79
:103880000EF120031BB2079352EA010342D0049BBE
:10389000DFF834E39A1A059B4FF0000C63EB01014B
:1038A00096457CEB010335D36B7B97F81AE07345A3
:1038B00021D1029B002B00F0848001282ADC78684B
:1038C00040BBDFF800C3944570EB010343D21EE018
:1038D000276A5FB9039B0093656853465A4608A957
:1038E0002046A84768BB6FF00B000AE03B6998458B
:1038F000ADD03F68EDE7B34890427CEB010303D3C2
:10390000002013B0BDE8F08F029B002BF8D0079B7E
:103910000F2B19DCFA7DB30002F0030203F07C03E5
:103920001343FB7539462046FFF7F0FA6B7BBB76F5
:10393000029B4BB9FB7DC3F38402013262F3860321
:10394000FB756FF00C00DCE76A7BBB7E9A42D7D137
:10395000029B002B35D0B309022B32D0049BBB60F5
:10396000059BFB60142200210DA8FDF717FF049BA7
:103970000A93059B0B932B1D0C932B7BADF83EB04C
:10398000013BDBB2ADF83C30069B8DF84230039B27
:103990008DF8433094F82C308DF840A083F001036B
:1039A0008DF844308DF84180A3680AA920469847D5
:1039B000FB7DC3F38403013303F01F039B02FB82EF
:1039C0009EE7FB7DC6F34012B2EBD31F40F0F680BA
:1039D000C3F38403434540F0F980029A2B7BB60978
:1039E000002A52D016F0010661D1032B40F2F1807B
:1039F000049BBB60059BFB60FB8A66F30903FB82AB
:103A00002B7BAE1D033BDBB23246394604F10C0082
:103A1000FFF78EFA00280CDA39462046FFF776FACF
:103A2000FB7DC3F38403013303F01F039B02FB827E
:103A3000F9E6DDE90884AB883B834FF6FF73C9F1F3
:103A40002000A9F1200228FA09F104FA00F001434C
:103A500024FA02F211431846C9B2FFF7ABF909F193
:103A60000809B9F1400F0346E9D1B8822A7B033A2D
:103A7000D2B23146FFF7B0F9FB7DB882DA43C2F328
:103A8000C01262F3C713FB753AE786B92E1D013BDE
:103A9000DBB23246394604F10C00FFF749FA002840
:103AA000BADB2A7BB88A013AD2B23146E2E7F98A18
:103AB000C1F30901013B0429DAB25BD8281D0023B8
:103AC00007F11B069A4208D910F801CB06F801C08D
:103AD000013101330529DBB2F4D104990A9105992A
:103AE0000B91934207F11B010C9138BF04337968A5
:103AF0000D9134BF55FA83F300230E93FB8AADF882
:103B00003EB0C3F309031A44069B8DF84230039B71
:103B10008DF8433094F82C30ADF83C2083F001034D
:103B20008DF8443000238DF840A08DF841807B60F3
:103B30002A7BB88A013A291DFFF74EF93B8BB882E0
:103B4000834203D1A3680AA92046984720460AA9C0
:103B5000FFF7F2FDFB7DBA8AC3F38403013303F060
:103B60001F039B02FB823B8B9A420CBF00206FF02D
:103B70001000C6E67B68002BAFD0052001E01C30AA
:103B800033461E68002EFAD1091A081D2E1D18444E
:103B900001EB090CBCF11B0F5FFA89F39DD89A4227
:103BA0009BD916F8013B00F8013B09F10109EFE749
:103BB0006FF00900A5E66FF00A00A2E66FF00D00B5
:103BC0009FE600BF40420F0080841E006FF00E0091
:103BD00097E66FF00F0094E6EFF3098305494A6B0F
:103BE00022F001024A63683383F30988002383F3D8
:103BF0001188704700EF00E0302080F3118862B632
:103C00000C4B0D4AD96821F4E0610904090C0A4300
:103C1000DA60D3F8FC20094942F08072C3F8FC2036
:103C20000A6842F001020A602022DA7783F8220053
:103C3000704700BF00ED00E00003FA05001000E04F
:103C400010B5302383F311880E4B5B6813F40063C7
:103C500014D0F1EE103AEFF30984683C4FF0807312
:103C6000E361094BDB6B236684F3098800F06AFB90
:103C700010B1064BA36110BD054BFBE783F3118820
:103C8000F9E700BF00ED00E000EF00E03F030008AF
:103C900042030008026843681143016003B11847FA
:103CA00070470000024AD36843F0C003D3607047F6
:103CB0000044004010B5054C054A0021204600F0A4
:103CC00087FA044A044BC4E9972310BD684B0020CF
:103CD000A53C00080044004080DE8002234A037CAB
:103CE000002918BF0A46012B30B5C0F868220CD154
:103CF0001F4B984209D11F4B196C41F400311964D4
:103D0000196E41F4003119661B6EB2F90450146843
:103D1000D0F86032D0F85C12002D03EB5403B3FBF3
:103D2000F4F3BEBF23F0070503F0070343EA45039E
:103D300094888B60D38843F040030B61138943F070
:103D400001034B6144F4045343F02C03CB6004F4AF
:103D5000A05400230B60B4F5806F0B684B680CBF58
:103D60007F23FF2380F8643230BD00BF7451000808
:103D7000684B0020003802402DE9F041D0F85C6229
:103D8000F7683368DA0504469DB20DD5302383F316
:103D900011884FF480610430FFF77CFF6FF480736B
:103DA0003360002383F31188302383F3118804F1F7
:103DB000040815F02F033AD183F31188380615D57E
:103DC000290613D5302383F3118804F1380000F05D
:103DD0007BF900284EDA0821201DFFF75BFF4FF624
:103DE0007F733B40F360002383F311887A0616D576
:103DF0006B0614D5302383F31188D4E913239A4238
:103E00000AD1236C43B127F040073F041021201D45
:103E10003F0CFFF73FFFF760002383F31188D4F8CE
:103E20006822D36843B3BDE8F041106918472B07F7
:103E300014D015F0080F0CBF00214FF48071E80773
:103E400048BF41F02001AA0748BF41F040016B077D
:103E500048BF41F080014046FFF71CFFAD06736884
:103E600005D594F864122046194000F0E1F9356850
:103E7000ADB29EE77060B6E7BDE8F08100F1604347
:103E800003F561430901C9B283F80013012200F070
:103E90001F039A4043099B0003F1604303F561430C
:103EA000C3F880211A607047F8B515468268066924
:103EB000AA420B46816938BF8568761AB542044626
:103EC0000BD218462A46FDF757FCA3692B44A36181
:103ED000A3685B1BA3602846F8BD0CD91846324680
:103EE000FDF74AFCAF1BE1683A463044FDF744FC5D
:103EF000E3683B44EBE718462A46FDF73DFCE368E0
:103F0000E5E7000083689342F7B51546044638BFDD
:103F10008568D0E90460361AB5420BD22A46FDF70F
:103F20002BFC63692B446361A36828465B1BA36079
:103F300003B0F0BD0DD932460191FDF71DFC01998A
:103F4000E068AF1B3A463144FDF716FCE3683B449A
:103F5000E9E72A46FDF710FCE368E4E710B50A44F8
:103F60000024C361029B8460C0E90000C0E9051120
:103F7000C1600261036210BD08B5D0E90532934209
:103F800001D1826882B98268013282605A1C426122
:103F90001970D0E904329A4224BFC36843610021FA
:103FA00000F078FA002008BD4FF0FF30FBE700007A
:103FB00070B5302304460E4683F31188A568A5B179
:103FC000A368A269013BA360531CA3611578226911
:103FD000934224BFE368A361E3690BB1204698478D
:103FE000002383F31188284607E03146204600F07D
:103FF00041FA0028E2DA85F3118870BD2DE9F74F08
:1040000004460E4617469846D0F81C904FF0300AEA
:104010008AF311884FF0000B154665B12A463146E8
:104020002046FFF741FF034660B94146204600F0B5
:1040300021FA0028F1D0002383F31188781B03B004
:10404000BDE8F08FB9F1000F03D001902046C847BA
:10405000019B8BF31188ED1A1E448AF31188DCE76B
:10406000C0E90511C160C3611144009B8260C0E9D1
:104070000000016103627047F8B504460D4616461C
:10408000302383F31188A768A7B1A368013BA3601D
:1040900063695A1C62611D70D4E904329A4224BFDC
:1040A000E3686361E3690BB120469847002080F321
:1040B000118807E03146204600F0DCF90028E2DAFA
:1040C00087F31188F8BD0000D0E905239A4210B5A6
:1040D00001D182687AB98268013282605A1C826199
:1040E0001C7803699A4224BFC3688361002100F0F1
:1040F000D1F9204610BD4FF0FF30FBE72DE9F74F17
:1041000004460E4617469846D0F81C904FF0300AE9
:104110008AF311884FF0000B154665B12A463146E7
:104120002046FFF7EFFE034660B94146204600F007
:10413000A1F90028F1D0002383F31188781B03B084
:10414000BDE8F08FB9F1000F03D001902046C847B9
:10415000019B8BF31188ED1A1E448AF31188DCE76A
:10416000026843681143016003B1184770470000BB
:104170001430FFF743BF00004FF0FF331430FFF758
:104180003DBF00003830FFF7B9BF00004FF0FF33EC
:104190003830FFF7B3BF00001430FFF709BF00004D
:1041A0004FF0FF311430FFF703BF00003830FFF746
:1041B00063BF00004FF0FF323830FFF75DBF0000F3
:1041C000012914BF6FF0130000207047FFF772BD84
:1041D00037B515460E4A026000224260C0E902224D
:1041E0000122044602740B46009000F15C014FF47A
:1041F00080721430FFF7B2FE00942B464FF48072A9
:1042000004F5AE7104F13800FFF72AFF03B030BDAA
:104210008851000810B53023044683F31188FFF756
:104220005DFD02232374002080F3118810BD00007F
:1042300038B5C36904460D461BB904210844FFF78D
:104240008FFF294604F11400FFF796FE002806DAD6
:10425000201D4FF40061BDE83840FFF781BF38BD35
:1042600000230375826803691B6899689142FBD239
:104270005A680360426010605860704700230375FD
:10428000826803691B6899689142FBD85A68036089
:10429000426010605860704708B50846302383F3C9
:1042A00011880B7D032B05D0042B0DD02BB983F384
:1042B000118808BD8B6900221A604FF0FF338361BB
:1042C000FFF7CEFF0023F2E7D1E9003213605A6016
:1042D000F3E70000FFF7C4BF38B50A4BDD681C6880
:1042E000287522681A605360DC60A368012293423B
:1042F000227501D100F046FC29462046BDE8384031
:10430000FCF708B8D84D002030B50C4BDD684B1CCD
:1043100087B004460FD02B46094A684600F04CF996
:104320002046FFF7D9FF009B13B1684600F04EF915
:10433000A86907B030BDFFF7CFFFF9E7D84D0020DF
:1043400099420008044B1A68DB6890689B689842A1
:1043500094BF002001207047D84D002038B50B4B8A
:104360001C68DD6822681A60536001222275DC60D7
:10437000AB68934201D100F007FC2846FFF77EFFAF
:1043800001462046BDE83840FBF7C4BFD84D0020A9
:1043900038B5074C0749084801230025237065609C
:1043A00000F030FC0223237085F3118838BD00BF74
:1043B00040500020B4510008D84D002008B572B616
:1043C000044B186500F0E0FA00F092FB024B032268
:1043D0001A70FEE7D84D00204050002000F02CB9A4
:1043E0008B60022308618B82084670478368A3F1C3
:1043F000840243F8142C026943F8442C426943F8C0
:10440000402C094A43F8242CC26843F8182C022295
:1044100003F80C2C002203F80B2C044A43F8102C50
:10442000A3F12000704700BF2D030008D84D0020E5
:1044300008B5FFF7DBFFBDE80840FFF74BBF000002
:10444000024BDB6898610F20FFF746BFD84D002074
:10445000302383F31188FFF7F3BF000008B501464E
:10446000302383F311880820FFF74EFF002383F3E6
:10447000118808BD064BDB6839B1426818605A6084
:10448000136043600420FFF73FBF4FF0FF307047D9
:10449000D84D00200368984206D01A680260506028
:1044A00099611846FFF716BF7047000010B5036802
:1044B0009C68A2420CD85C688A600B604C602160EA
:1044C000596099688A1A9A604FF0FF33836010BD73
:1044D0001B68121BECE700000A2938BF0A2170B5DF
:1044E00004460D460A26601900F086FB00F072FBB8
:1044F000041BA54203D8751C2E460446F3E70A2E7A
:1045000004D9BDE87040012000F0BCBB70BD0000C4
:10451000F8B5144B0D46D96103F1100141600A2A28
:104520001969826038BF0A22016048601861A818C2
:10453000144600F053FB0A2700F04CFB431BA34238
:10454000064606D37C1C281900F056FB2746354644
:10455000F2E70A2F04D9BDE8F840012000F092BB31
:10456000F8BD00BFD84D0020F8B506460D4600F056
:1045700031FB0F4A134653F8107F9F4206D12A465B
:1045800001463046BDE8F840FFF7C2BFD169BB68BD
:10459000441A2C1928BF2C46A34202D92946FFF7FA
:1045A0009BFF224631460348BDE8F840FFF77EBF37
:1045B000D84D0020E84D002010B4C0E903230023AB
:1045C0005DF8044B4361FFF7CFBF000010B5194CF5
:1045D000236998420DD0D0E90032816813605A6097
:1045E0009A680A449A60002303604FF0FF33A36186
:1045F00010BD2346026843F8102F5360002202606A
:1046000022699A4203D1BDE8104000F0EFBA9368E6
:1046100081680B44936000F0DDFA2269E1699268D9
:10462000441AA242E4D91144BDE81040091AFFF728
:1046300053BF00BFD84D00202DE9F047DFF8BC8004
:1046400008F110072C4ED8F8105000F0C3FAD8F833
:104650001C40AA68031B9A423ED81444D5E9003294
:104660004FF00009C8F81C4013605A60C5F800906C
:10467000D8F81030B34201D100F0B8FA89F31188AC
:10468000D5E9033128469847302383F311886B69B5
:10469000002BD8D000F09EFA6A69A0EB04094A45C5
:1046A00082460DD2022000F0EDFA0022D8F8103038
:1046B000B34208D151462846BDE8F047FFF728BF6E
:1046C000121A2244F2E712EB090938BF4A4629467A
:1046D0003846FFF7EBFEB5E7D8F81030B34208D004
:1046E0001444211AC8F81C00A960BDE8F047FFF780
:1046F000F3BEBDE8F08700BFE84D0020D84D002094
:1047000038B500F067FA054AD2E90845031B1819C5
:1047100045F10001C2E9080138BD00BFD84D0020B5
:1047200000207047FEE70000704700004FF0FF30A8
:1047300070470000BFF34F8F024AD368DB03FCD4FD
:10474000704700BF003C024008B5094B1B7873B9A5
:10475000FFF7F0FF074B1A69002ABFBF064A5A60ED
:1047600002F188325A601A6822F480621A6008BD29
:1047700048500020003C02402301674508B50B4B20
:104780001B7893B9FFF7D6FF094B1A6942F0004234
:104790001A611A6842F480521A601A6822F4805230
:1047A0001A601A6842F480621A6008BD48500020FE
:1047B000003C02400B28F0B516D80C4C0C4923786D
:1047C0007BB90C4D0E460C234FF0006255F8047B6C
:1047D00046F8042B013B13F0FF033A44F6D10123C2
:1047E000237051F82000F0BD0020FCE77C50002031
:1047F0004C500020C0510008014B53F82000704776
:10480000C05100080C2070470B2810B5044601D990
:10481000002010BDFFF7CEFF064B53F8243018449C
:10482000C21A0BB90120F4E712680132F0D1043B3F
:10483000F6E700BFC05100080B2810B5044621D888
:10484000FFF778FFFFF780FF0F4AF323D360C30021
:10485000DBB243F4007343F002031361136943F4C2
:1048600080331361FFF766FFFFF7A4FF074B53F890
:10487000241000F039F9FFF781FF2046BDE8104011
:10488000FFF7C2BF002010BD003C0240C05100082D
:10489000F8B512F00103144642D18218B2F1016F4B
:1048A00057D82D4B1B6813F0010352D02B4DFFF747
:1048B0004BFFF323EB60FFF73DFF40F20127032C92
:1048C00015D824F001046618244C401A40F2011750
:1048D000B142236900EB010524D123F001032361D8
:1048E000FFF74CFF0120F8BD043C0430E7E78307E5
:1048F000E7D12B6923F440732B612B693B432B6178
:1049000051F8046B0660BFF34F8FFFF713FF036886
:104910009E42E9D02B6923F001032B61FFF72EFFA4
:104920000020E0E723F44073236123693B432361C4
:104930000B882B80BFF34F8FFFF7FCFE2D8831F8DB
:10494000023BADB2AB42C3D0236923F00103236124
:10495000E4E71846C7E700BF00380240003C0240C9
:10496000084908B50B7828B11BB9FFF7EDFE012304
:104970000B7008BD002BFCD0BDE808400870FFF7A5
:10498000FDBE00BF4850002008B50649064800F0AB
:10499000ADF8BDE808404FF480314FF0805000F092
:1049A000A5B800BF00FF0100000100200846114625
:1049B00000F00ABB084600F01DBB000038B5EFF35D
:1049C00011859DB9EFF30584C4F30804302334B195
:1049D00083F31188FFF794FE85F3118838BD83F3C4
:1049E0001188FFF78DFE84F3118838BDBDE838408B
:1049F000FFF786BE38B5FFF7E1FF114C114AC0083A
:104A000040EA4170A0FB025EC908A0FB040C1CEB4D
:104A1000050CA1FB04404FF000035B41A1FB021217
:104A20001CEB040C43EB000011EB0E0142F1000201
:104A3000411842F10000090941EA007038BD00BF89
:104A4000CFF753E3A59BC42010B50244064BD2B266
:104A5000904200D110BD441C00B253F8200041F830
:104A6000040BE0B2F4E700BF502800400F4B30B514
:104A70001C6F240407D41C6F44F400741C671C6F63
:104A800044F400441C670A4C236843F48073236099
:104A90000244084BD2B2904200D130BD441C00B257
:104AA00051F8045B43F82050E0B2F4E700380240CC
:104AB000007000405028004007B5012201A90020E5
:104AC000FFF7C2FF019803B05DF804FB13B504467D
:104AD000FFF7F2FFA04205D0012201A900200194B6
:104AE000FFF7C4FF02B010BD704700007047000020
:104AF00070470000074B45F255521A6003225A6076
:104B000040F2FF729A604CF6CC421A60024B0122CE
:104B10001A7070470030004084500020034B1B780F
:104B20001BB1034B4AF6AA221A607047845000203A
:104B300000300040034B1A681AB9034AD2F87428AF
:104B40001A6070478050002000300240024B4FF046
:104B50008072C3F8742870470030024008B5FFF730
:104B6000E9FF024B1868C0F3407008BD8050002078
:104B700008B5FFF7DFFF024B1868C0F3007008BDEF
:104B80008050002070470000704700007047000010
:104B9000FEE700000A4B0B480B4A90420BD30B4B2D
:104BA000DA1C121AC11E22F003028B4238BF002207
:104BB0000021FCF7F3BD53F8041B40F8041BECE79D
:104BC0008053000888500020885000208850002022
:104BD00000F0D0B84FF08043586A70474FF08043E0
:104BE000002258631A610222DA6070474FF0804356
:104BF0000022DA60704700004FF08043586370472E
:104C0000FEE7000070B51B4B01630025044686B02B
:104C1000586085620E46FEF7EFFF04F11003C4E909
:104C200004334FF0FF33C4E90635C4E90044A560FE
:104C3000E562FFF7CFFF2B460246C4E9082304F1E3
:104C400034010D4A256580232046FFF7C9FB012367
:104C5000E0600A4A0375009272680192B268CDE979
:104C60000223074B6846CDE90435FFF7E1FB06B0A8
:104C700070BD00BF40500020F0510008F551000801
:104C8000014C0008024AD36A1843D062704700BF43
:104C9000D84D00204B6843608B688360CB68C3604D
:104CA0000B6943614B6903628B6943620B68036064
:104CB0007047000008B5264B26481A6940F2FF11DC
:104CC0000A431A611A6922F4FF7222F001021A6182
:104CD0001A691A6B0A431A631A6D0A431A651E4A47
:104CE0001B6D1146FFF7D6FF02F11C0100F5806035
:104CF000FFF7D0FF02F1380100F58060FFF7CAFF2F
:104D000002F1540100F58060FFF7C4FF02F1700169
:104D100000F58060FFF7BEFF02F18C0100F58060B6
:104D2000FFF7B8FF02F1A80100F58060FFF7B2FFBE
:104D300002F1C40100F58060FFF7ACFF02F1E00171
:104D400000F58060FFF7A6FFBDE8084000F08EB8D0
:104D50000038024000000240FC51000808B500F095
:104D60001DF9FFF715FBBDE80840FFF7E3BE0000A3
:104D7000704700000F4B1A6C42F001021A641A6E61
:104D800042F001021A660C4A1B6E936843F001035D
:104D900093604FF0804353229A624FF0FF32DA6201
:104DA00000229A615A63DA605A6001225A611A60DD
:104DB000704700BF00380240002004E04FF08042FE
:104DC00008B51169D3680B40D9B2C9439B0711617B
:104DD00007D5302383F31188FFF700FB002383F30B
:104DE000118808BD1F4B1A696FEAC2526FEAD2528E
:104DF0001A611A69C2F308021A614FF0FF301A698A
:104E00005A69586100215A6959615A691A6A62F0EF
:104E100080521A621A6A02F080521A621A6A5A6A38
:104E200058625A6A59625A6A1A6C42F080521A647D
:104E30001A6E42F080521A661A6E0B4A106840F4DD
:104E400080701060186F00F44070B0F5007F1EBFD6
:104E50004FF4803018671967536823F40073536068
:104E600000F090B80038024000700040334B4FF023
:104E700080521A64324A4FF4404111601A6842F07D
:104E800001021A601A689107FCD59A6822F00302A1
:104E90009A602A4B9A6812F00C02FBD1196801F053
:104EA000F90119609A601A6842F480321A601A682F
:104EB0009203FCD55A6F42F001025A671F4B5A6F9A
:104EC0009007FCD51F4A5A601A6842F080721A6037
:104ED0001B4A53685904FCD5184B1A689201FCD53B
:104EE000194A9A60194B1A68194B9A42194B21D1E9
:104EF000194A1168194A91421CD140F205121A60F0
:104F0000144A136803F00F03052BFAD10B4B9A6870
:104F100042F002029A609A6802F00C02082AFAD162
:104F20005A6C42F480425A645A6E42F480425A6685
:104F30005B6E704740F20572E1E700BF0038024047
:104F4000007000401954400700948838002004E0A5
:104F500011640020003C024000ED00E041C20F411E
:104F600008B50348FEF708FFBDE80840FEF768BE35
:104F7000684B002008B5FFF721FFBDE80840FEF7A9
:104F80005FBE000008B507211C20FEF777FFBDE8D3
:104F900008400C212620FEF771BF000008B5FFF77E
:104FA00021FF00F009F8FFF711F9FFF7E1FEBDE876
:104FB0000840FFF70DBE0000704700000B46014699
:104FC000184600F009B80000024B0A46014618686E
:104FD000FFF7ECBC2423002010B5054C13462CB180
:104FE0000A4601460220AFF3008010BD2046FCE7D0
:104FF00000000000024B01461868FFF7DBBC00BF51
:105000002423002010B501390244904201D1002030
:1050100005E0037811F8014FA34201D0181B10BD21
:105020000130F2E72DE9F041A3B1C91A1778014424
:10503000044603F1FF3C8C42204601D9002009E0E0
:105040000578BD4204F10104F5D10CEB0405D61836
:10505000A54201D1BDE8F08115F8018D16F801EDEA
:10506000F045F5D0E7E70000034611F8012B03F8FF
:10507000012B002AF9D17047121000001211000014
:10508000121300006F72672E6172647570696C6F25
:10509000742E434F52564F4E2D47320053544D33CA
:1050A00032463F3F3F0053544D3332463430780050
:1050B00053544D3332463432780053544D333246D4
:1050C00034343658580000000120330000104100ED
:1050D00001105A00031059000710310000000000B1
:1050E0009C50000813040000A6500008190400009A
:1050F000B050000821040000BA50000840A2E4F1BA
:10510000646891060041A3E5F2656992070000001A
:105110004261642043414E496661636520696E6463
:1051200065782E00800000000080000000008000F4
:105130000000000000000000E1200008C128000875
:105140001D280008112100081D210008292300083E
:10515000E9200008F1200008ED20000845220008A1
:10516000F5200008DD2B0008812B00080521000830
:105170001922000800960000000000000000000056
:105180000000000000000000000000008D41000849
:1051900079410008B5410008A1410008AD4100086F
:1051A000994100088541000871410008C14100088B
:1051B00063300000B0510008304E00204050002005
:1051C00000400000004000000040000000400000DF
:1051D00000000100000002000000020000000200C8
:1051E00000000200000002000000020000000200B7
:1051F0006D61696E0069646C65000000A050002854
:1052000000000000AAAAAAAA500000243FFF000044
:105210000077000000000000000800080000000007
:10522000AAAAAAAA00000000FFFF00000000900048
:10523000000090000000000000000000AAAAAAAA36
:1052400000000000FFFF0000000000000000000060
:105250000000000000000000AAAAAAAA00000000A6
:10526000FFFF000000000000000000000000000040
:1052700000000000AAAAAAAA00000000FFFF000088
:10528000000000000000000000000000000000001E
:10529000AAAAAAAA00000000FFFF00000000000068
:1052A000000000000000000000000000AAAAAAAA56
:1052B00000000000FFFF00000000000000000000F0
:1052C00000000000000000000A00000000000000D4
:1052D00003000000000000000000000000000000CB
:1052E00000000000000000000000000000000000BE
:1052F0000000000000000000AC07000000000000FB
:1053000000000F000000000040420F00FE2A0100D4
:10531000D2040000FF000000684B0020282300207A
:10532000000000000000000000000000000000007D
:10533000000000000000000000000000000000006D
:10534000000000000000000000000000000000005D
:10535000000000000000000000000000000000004D
:10536000000000000000000000000000000000003D
:10537000000000000000000000000000000000002D
:00000001FF
